:020000040800F2
:1000000048080020D50100083B0F0008110A00082D
:10001000370F0008DD060008D321000800000000AB
:100020000000000000000000000000002113000894
:10003000F108000800000000AD0F000835140008AA
:10004000EF010008EF010008EF010008EF010008D0
:10005000EF010008EF010008EF010008EF010008C0
:10006000EF010008EF010008EF010008EF010008B0
:10007000EF010008EF010008EF010008EF010008A0
:10008000EF010008EF010008EF010008EF01000890
:10009000EF010008EF010008EF010008EF01000880
:1000A000EF01000841170008EF010008EF01000808
:1000B00011190008EF010008EF010008EF01000826
:1000C000EF010008EF010008EF010008EF01000850
:1000D000EF010008B11F0008EF010008EF01000860
:1000E000EF010008EF010008EF010008EF01000830
:1000F000EF010008EF010008EF010008EF01000820
:10010000EF010008EF010008EF010008EF0100080F
:10011000EF010008EF010008EF010008EF010008FF
:10012000EF010008EF010008EF010008EF010008EF
:1001300000F002F800F03FF80AA090E8000C8244BA
:100140008344AAF10107DA4501D100F034F8AFF297
:10015000090EBAE80F0013F0010F18BFFB1A43F0A5
:10016000010318476C7300008C730000103A24BF21
:1001700078C878C1FAD8520724BF30C830C144BF0C
:1001800004680C607047000000230024002500264E
:10019000103A28BF78C1FBD8520728BF30C148BFEA
:1001A0000B607047642900F09B80002070471FB5EA
:1001B0001FBD10B510BD00F063FA1146FFF7F7FF41
:1001C00003F07EFE00F081FA03B4FFF7F2FF03BCF8
:1001D00002F07EF80948804709480047FEE7FEE73D
:1001E000FEE7FEE7FEE7FEE7FEE7FEE7FEE7FEE7E7
:1001F00004480549054A064B7047000039140008B9
:10020000310100084802002048080020480400206E
:1002100048040020704710B54C1084EA530404D5FC
:100220004042C1F1000138BF491E1B4204D5524271
:10023000C3F1000338BF5B1E00F0C6F814F0804F16
:1002400004D04042C1F1000138BF491E14F0004FF4
:1002500004D05242C3F1000338BF5B1E10BD000042
:100260000FB4044910B503AA029800F089F910BC34
:100270005DF814FBF00000202DE9F0410E46044625
:10028000002020622046E168884730B3252805D049
:10029000D4E901219047206A401CF2E7E16820463A
:1002A00000278847050018D0A5F14100192802D879
:1002B00020354FF400673246294620462760FFF775
:1002C00071FF40B1012804D0F61D26F0070608365C
:1002D000D8E7361DD6E72846DAE7206ABDE8F08180
:1002E0002DE9F0410646002410687529314616A50F
:1002F00010D0AFF30080002802DA404213A507E0D7
:1003000031688A0701D512A502E0490704D511A575
:10031000012401E0AFF3008000210A2206F1240746
:1003200009E0B0FBF2FCB0FBF2F302FB1C00303042
:1003300078541846491C0028F3D123462A463046F3
:10034000BDE8F04100F0C2B8000000002D00000040
:100350002B0000002000000040EA010310B59B07BD
:100360000FD1042A0DD310C808C9121F9C42F8D01F
:1003700020BA19BA884201D9012010BD4FF0FF30D0
:1003800010BD1AB1D30703D0521C07E0002010BDE6
:1003900010F8013B11F8014B1B1B07D110F8013B72
:1003A00011F8014B1B1B01D1921EF1D1184610BD53
:1003B00002F0FF0343EA032242EA024200F0F4B8EB
:1003C000704770477047704753EA020C00F069802D
:1003D0002DE9F04B4FF00006002B1FBFB3FA83F559
:1003E00003FA05F424FA05F65E4012BF1643B2FA8A
:1003F00082F502FA05F4C5F120051EBF22FA05FCBC
:1004000044EA0C04203556EA044C4FEA144418BF61
:10041000641C4FF000084FF00009904271EB030C90
:1004200039D3002919BFB1FA81F701FA07F6B0FAFA
:1004300080F700FA07F6C7F120071EBF20FA07FC75
:1004400046EA0C062037B6FBF4FCA7EB0507103F85
:1004500007F01F0BCBF120060CFA0BFB2CFA06F66B
:1004600044BFB3460026202FA4BF5E464FF0000BCA
:100470005BEA060C08BF4FF0010B19EB0B09ABFB55
:10048000027C48EB0608C01B06FB02CC0BFB03CC2E
:1004900071EB0C01C1E70B46024641464846BDE8F8
:1004A000F08B13B54FF000004FF00001AFF3008068
:1004B000BDE81C40704710B500F096F8006810BD0C
:1004C00010B5044600F090F8046010BD2DE9F04727
:1004D0000D4699469246044600F1240801688806B4
:1004E00004D5E06921F01001216000E00120A8425C
:1004F00001DD471B00E00027A1697A1902EB090022
:10050000081AA0612078C00602D42046AFF300800C
:10051000002608E0D4E901211AF806009047206A75
:10052000401C761C20624E45F4DB2078C0060AD5BC
:100530002046AFF3008006E0D4E901213020904747
:10054000206A401C2062381EA7F10107F4DC07E096
:10055000D4E9012118F805009047206A401C206268
:10056000281EA5F10105F3DC2046AFF300802078BA
:10057000000602D50220BDE8F0870120FBE700005D
:10058000074B70B50D467B4400F037F8044628460B
:1005900000F046F810B14FF0FF3070BD204670BD3E
:1005A000F73000004FF000020429C0F0128010F074
:1005B000030C00F03B80CCF1040CBCF1020F18BF1F
:1005C00000F8012BA8BF20F8022BA1EB0C0100F0D2
:1005D0002DB85FEAC17C24BF00F8012B00F8012B85
:1005E00048BF00F8012B704700487047E401002025
:1005F00001694A1C02610878704700B58FB0CDE9E7
:1006000001310021059105497944CDE903101146D6
:100610006846FFF731FE0FB000BD0000E5FFFFFFA9
:10062000007B00F0800070474FF0000200B51346D9
:1006300094469646203922BFA0E80C50A0E80C5002
:10064000B1F12001BFF4F7AF090728BFA0E80C50B3
:1006500048BF0CC05DF804EB890028BF40F8042BAC
:1006600008BF704748BF20F8022B11F0804F18BF19
:1006700000F8012B7047000000487047E40100209B
:100680007546FFF7F9FFAE4605006946534620F070
:100690000700854618B020B5FFF7AAFDBDE8204049
:1006A0004FF000064FF000074FF000084FF0000B2E
:1006B00021F00701AC46ACE8C009ACE8C009ACE8E1
:1006C000C009ACE8C0098D46704710B50446AFF3C9
:1006D00000802046BDE81040FFF776BD00BFFEE772
:1006E00038B5002000906B4601227521682003F088
:1006F00041FB2CA0FFF7B4FD9DF8000068280ED048
:1007000000BF3148006800F4E06030490843001D34
:100710002D490860BFF34F8F00BF00BFFEE703F015
:1007200009FD00283CD1782004F00EFB10B91DA073
:10073000FFF796FD782003F0EBFB10B924A0FFF73C
:100740008FFDC82004F0B2FA10B92BA0FFF788FD86
:1007500002F032FB10B932A0FFF782FD3D4803F0F2
:1007600074FB044602F082FD10B93BA0FFF778FD50
:1007700040F2731002F0C8F910B941A0FFF770FD04
:10078000C82002F0A3FC10B947A0FFF769FD04F0F0
:10079000C5FC012004F086F910B94CA0FFF760FDFC
:1007A00038BD00006D70755F7365745F73656E733F
:1007B0006F7220636F6D706C657465202E2E2E2E07
:1007C0002E2E0D0A000000000CED00E00000FA05DE
:1007D0006D70755F636F6E6669677572655F666978
:1007E000666F20636F6D706C657465202E2E2E2EE3
:1007F0002E2E0D0A000000006D70755F7365745F2A
:1008000073616D706C655F7261746520636F6D708C
:100810006C657465202E2E2E2E2E2E0D0A000000E3
:10082000646D705F6C6F61645F6D6F74696F6E5F34
:100830006472697665725F6669726D776172652050
:10084000636F6D706C657465202E2E2E2E2E2E0D0E
:100850000A00000088000020646D705F7365745F9B
:100860006F7269656E746174696F6E20636F6D700D
:100870006C657465202E2E2E2E2E2E0D0A00000083
:10088000646D705F656E61626C655F6665617475ED
:10089000726520636F6D706C657465202E2E2E2E30
:1008A0002E2E0D0A00000000646D705F7365745F8A
:1008B0006669666F5F7261746520636F6D706C65E9
:1008C0007465202E2E2E2E2E2E0D0A006D70755F53
:1008D0007365745F646D705F737461746520636FBA
:1008E0006D706C657465202E2E2E2E2E2E0D0A0036
:1008F00070472DE9F0410246002500260020002324
:100900000024002791F803C00CF00F0591F803C0F4
:100910000CF0100CBCF1000F03D091F802C04CEAAF
:10092000050591F800C0BCF1000F31D0146800201B
:100930002BE04FF0010C0CFA00F3B1F800C00CEA08
:1009400003069E4220D183004FF00F0C0CFA03F7F0
:10095000BC4305FA03FC4CEA040491F803C0BCF163
:10096000280F06D14FF0010C0CFA00FCC2F814C09D
:100970000AE091F803C0BCF1480F05D14FF0010C1B
:100980000CFA00FCC2F810C0401C0828D1D3146037
:10099000B1F800C0BCF1FF0F34DD546800202EE038
:1009A00000F1080C4FF0010808FA0CF3B1F800C090
:1009B0000CEA03069E4221D183004FF00F0C0CFA83
:1009C00003F7BC4305FA03FC4CEA040491F803C0A6
:1009D000BCF1280F05D100F1080C08FA0CF8C2F898
:1009E000148091F803C0BCF1480F07D100F1080C46
:1009F0004FF0010808FA0CF8C2F81080401C0828D3
:100A0000CED35460BDE8F081416170470161704709
:100A100000BFFEE770B505460E46002400F0F8F86A
:100A2000284600F0BDF8641C00F04AF9304600F09A
:100A3000B7F8641C00F044F900F0EAF8691CC8B289
:100A400000F0AEF8641C00F03BF9002000F072F8F2
:100A5000044600F011F9204670BD000010B50020DA
:100A60000E4908600E48006820F470000C490860C8
:100A70000846006840F44010086000200949C1F8A9
:100A8000940100F011F801200449086000F00CF80E
:100A900000200449C1F8900110BD000090012142DE
:100AA000000801400000214210B5022001F0E8FFDB
:100AB00010BD000008B50121042000F089FA3020A3
:100AC000ADF8000010208DF8030003208DF802001F
:100AD00069460448FFF70DFF30210248FFF796FFF3
:100AE00008BD00000008014010B500200E49086054
:100AF0000E48006820F470000C4908600846006841
:100B000040F44010086001200949C1F89401FFF742
:100B1000CBFF012004490860FFF7C6FF002004490D
:100B2000C1F8900110BD0000900121420008014071
:100B30000000214270B5054600241648006820F4E4
:100B40007000144908600846006840F4000008601E
:100B5000002614E0002010490860FFF7A5FF0120DF
:100B60000E49C1F890016006040E0B487C380068FD
:100B700008B1601CC4B2FFF797FF701CC6B2082E04
:100B8000E8DB15B9FFF7B0FF01E0FFF767FF20468C
:100B900070BD000000080140900121420000214288
:100BA00070B504461748006820F4700015490860C5
:100BB0000846006840F440100860002012490860B0
:100BC00000251BE0E00920B101200F49091D086044
:100BD00003E000200C49091D08606006040EFFF7C1
:100BE00063FF012008490860FFF75EFF0020074906
:100BF000C1F89001FFF758FF681CC5B2082DE1DB72
:100C000070BD000000080140900121420000214217
:100C100010B51648006820F47000144908600846B2
:100C2000006840F440100860012011490860114834
:100C3000D0F8140108B9002010BD01200C49091F8B
:100C40000860022001F01CFF00200A49C1F894014D
:100C500007488038006808B10020EDE7FFF724FF5F
:100C600000200349091F08600120E5E70008014052
:100C7000940121420000214210B50E48006820F482
:100C800070000C4908600846006840F44010086095
:100C90000020094908600949C1F89401FFF704FFE1
:100CA0000120054908600549C1F89401FFF7FCFEE1
:100CB00010BD0000000801409001214200002142C7
:100CC00010B500241548006820F47000134908602E
:100CD0000846006840F400000860012010490860E0
:100CE000FFF7E2FE01200F49C1F89001FFF7DCFE9B
:100CF00009E0601CC4B2642C03DDFFF7BDFF0020D7
:100D000010BDFFF7D1FE0648803800680028F0D1FA
:100D10000349091F08600120F2E7000000080140B4
:100D2000940121420000214270B505460E4614464A
:100D300031462846FFF76EFE2070012070BDF8B5E1
:100D400006460F4614461D466A4639463046FFF7AA
:100D5000EBFF2DB10120A0409DF80010084305E0F5
:100D60000120A0409DF8001021EA0000C0B20090D0
:100D70009DF800203946304600F036F8F8BD2DE9E0
:100D8000F8430746884614461D46089E6A46414673
:100D90003846FFF7C9FF28B3601CFF2101FA00F0B5
:100DA000C4F108012944491EFF220A41104300F002
:100DB000FF09C5F1080006FA00F0C6B2C4F1070049
:100DC00006419DF8000000EA090000909DF800002F
:100DD000304300909DF800204146384600F004F86A
:100DE000BDE8F8830020FBE737B504460D4602ABAB
:100DF00001222946204600F001F83EBD2DE9F041D0
:100E000080460D4616461F460024FFF701FF404668
:100E1000FFF7C6FEFFF754FF2846FFF7C1FEFFF7B6
:100E20004FFF00BF06E0385DFFF7BAFEFFF748FF4F
:100E3000601CC4B2B442F6DBFFF71EFF0120BDE820
:100E4000F081000008B50121102000F0C1F84FF436
:100E50000050ADF8000010208DF8030003208DF83D
:100E6000020069460A48FFF744FD4FF40051084864
:100E7000FFF7CCFD4FF400510548FFF7C5FD0020FA
:100E80000449086001200449C1F8B40108BD00000C
:100E900000100140B40122420000224210B502209D
:100EA00000F010F8032000F021F8002000F014F802
:100EB000002000F037F8002000F02BF8002000F0B0
:100EC0001FF810BD38B50446032302226B21D02041
:100ED0000094FFF754FF38BD38B5044602230422BE
:100EE0001C21D0200094FFF74AFF38BD38B50446D6
:100EF000022304221B21D0200094FFF740FF38BDBD
:100F000010B50446234601223721D020FFF717FFF2
:100F100010BD10B50446234605226A21D020FFF7F4
:100F20000EFF10BD10B50446234606226B21D020CB
:100F3000FFF705FF10BD00BFFEE7704770B5002149
:100F400000230F22C47804B3154C246804F4E06431
:100F5000C4F5E064210AC1F10403CA40447804FAEC
:100F600003F184781440214309010E4C0678A15501
:100F7000047804F01F050124AC4005786D11AD0024
:100F800005F1E025C5F8004109E0047804F01F05EB
:100F90000124AC40044D0678761145F8264070BD1A
:100FA0000CED00E000E400E080E100E070470000AC
:100FB00029B1064AD2690243044BDA6104E0034ACC
:100FC000D2698243014BDA61704700000010024091
:100FD00029B1064A92690243044B9A6104E0034A2C
:100FE00092698243014B9A617047000000100240F1
:100FF00030B500210022002400232D4D6D6805F03E
:101000000C0121B1042905D0082923D105E0294D7F
:10101000056022E0274D05601FE0254D6D6805F451
:101020007012234D6D6805F48034022505EB924261
:101030001CB9214D554305600BE01D4D6D6805F44D
:1010400000351DB11C4D5543056002E0194D554357
:10105000056002E0174D056000BF00BF144D6D68CC
:1010600005F0F0010909154D6B5C0568DD40456030
:101070000F4D6D6805F4E061090A104D6B5C456821
:10108000DD4085600A4D6D6805F46051C90A0B4D5D
:101090006B5C4568DD40C560054D6D6805F44041F9
:1010A000890B074D6B5CC568B5FBF3F5056130BD79
:1010B0000010024000127A0000093D00F6000020F6
:1010C000060100202DE9F04F91B004468946924672
:1010D0000EA88B490FAB0AAACDE9001089498A48AE
:1010E00001F076FE8648008800F4807000287DD0EC
:1010F0000A9805F0D3F805464FF09D4104F09CFF97
:10110000824908600B9805F0C9F805464FF09D41EB
:1011100004F092FF7E4908600C9805F0BFF8054680
:101120004FF09D4104F088FF7A4908600D9805F062
:10113000B5F805464FF09D4104F07EFF7649086002
:10114000724801684FF0804005F008F90590714839
:101150000168059805F002F983466D4801684FF073
:10116000404005F0FBF805906B480168059805F0D4
:10117000F5F85946069004F0F1FE079004F0C2FE1F
:10118000CDE9080101F0FAF807464FF06632634BEB
:1011900004F0A8FB054604F0DDF820605D48016816
:1011A0004FF0804005F0DAF802905A480168029842
:1011B00005F0D4F88346564801684FF0404005F0EA
:1011C000CDF8029052480168029805F0C7F85946D8
:1011D000039005F0CBF980464FF07E5104F0BEFE3F
:1011E000074604F08FFECDE9060100E084E04748A1
:1011F00001684FF0804005F0B1F803904448016861
:10120000039805F0ABF88046424801684FF08040F3
:1012100005F0A4F8039040480168039805F09EF893
:101220008346414604F09AFE074604F06BFECDE982
:101230000401DDE9062301F0E9FA4FF06632374B8D
:10124000CDE9080104F04EFB054604F083F8C9F827
:10125000000031480168006805F080F804902D48CE
:101260000168006805F07AF8029029480168006872
:1012700005F074F8019025480168006805F06EF8E3
:101280000090019904F06AFE8346029905F06EF918
:101290000390049905F06AF9059004F033FE0546C1
:1012A0000E461D4801681948006805F057F804907B
:1012B000184801681648006805F050F80390049932
:1012C00004F04CFE4FF08041059005F047F883464E
:1012D00004F018FE2A463346CDE9060101F096FADD
:1012E0004FF066320D4BCDE9080104F0FBFA0746DA
:1012F00004F030F8CAF8000011B0BDE8F08F00002B
:10130000740000206E00002068000020780000209B
:101310007C000020800000208400002066A64C4055
:10132000704710B500F002F810BD00000CB50020A9
:10133000019000903348006840F4803031490860E3
:1013400000BF3048006800F4003000900198401C55
:101350000190009818B90198B0F5A06FF1D1294813
:10136000006800F4003010B10120009001E000207E
:1013700000900098012843D12348006840F01000F5
:10138000214908600846006820F00300086008460C
:10139000006840F0020008601A4840681949486037
:1013A0000846406848600846406840F480604860ED
:1013B0000846406820F47C1048600846406840F4C5
:1013C000E81048600846006840F08070086000BF80
:1013D0000C48006800F000700028F9D00948406807
:1013E00020F00300074948600846406840F00200CA
:1013F000486000BF0348406800F00C000828F9D19D
:101400000CBD00000010024000200240042808D15A
:101410004FF0E021096941F004014FF0E022116131
:1014200007E04FF0E021096921F004014FF0E022CC
:10143000116170477047000010B51348006840F014
:1014400001001149086008464068104908400E49EB
:101450004860084600680E4908400B490860084685
:10146000006820F4802008600846406820F4FE00F0
:1014700048604FF41F008860FFF753FF4FF0006093
:101480000449086010BD0000001002400000FFF891
:10149000FFFFF6FE08ED00E0F0B50C461546002211
:1014A0000021068C4FF6FE773E400684028B018CAD
:1014B0004FF60C7632407E1C06EA03162E4332436A
:1014C000104EB0420ED0104EB0420BD0B0F1804F53
:1014D00008D00E4EB04205D00D4EB04202D00D4E97
:1014E000B04206D14FF6FD76314044F0010631435B
:1014F00005E04FF6F576314044F0010631430283B2
:101500000184F0BD002C0140003401400004004083
:1015100000080040000C0040F0B50C4615460022C3
:1015200000210026078C4FF6EF7C07EA0C070784A2
:10153000028B018C4FF6FF7707EA041640F6FF474F
:101540003A404FF6FF7707EA03373A434FF6FF7703
:1015500007EA05273A43114FB8420ED0104FB84260
:101560000BD0B0F1804F08D00E4FB84205D00E4FCF
:10157000B84202D00D4FB84206D14FF6DF7739405E
:1015800046F01007394305E04FF65F77394044F0E5
:101590001007394302830184F0BD0000002C014094
:1015A000003401400004004000080040000C0040EE
:1015B000F0B50C461546002200210026078C4FF698
:1015C000FF6C07EA0C070784828B018C4FF6FF77CC
:1015D00007EA04264FF60C773A404FF6FF7707EA02
:1015E00003172F433A43114FB8420ED0104FB84261
:1015F0000BD0B0F1804F08D00E4FB84205D00E4F3F
:10160000B84202D00D4FB84206D14FF6FF573940CD
:1016100046F48077394305E04FF2FF57394044F4F0
:101620008077394382830184F0BD0000002C0140A3
:10163000003401400004004000080040000C00405D
:10164000F0B50C461546002200210026078C4EF608
:10165000FF7C07EA0C070784828B018C4FF6FF772B
:1016600007EA043640F6FF473A404FF6FF7707EAAD
:1016700005273A434FF6FF7707EA03373A43114FFE
:10168000B8420ED0104FB8420BD0B0F1804F08D006
:101690000E4FB84205D00E4FB84202D00D4FB8429F
:1016A00006D14DF6FF77394046F48057394305E0BF
:1016B00047F6FF57394044F4805739438283018409
:1016C000F0BD0000002C0140003401400004004047
:1016D00000080040000C00407FB505460C46012183
:1016E000C802FFF775FCADF80850ADF804400020C3
:1016F000ADF80A00ADF80A008DF80C00ADF8060050
:1017000001A90E4800F002FC012211460B4800F02E
:1017100061FA19208DF8000000208DF801000220E8
:101720008DF8020001208DF803006846FFF706FCE3
:101730000121024800F0ABF97FBD0000002C014000
:101740002DE9F0470121334800F0DDF900285FD092
:1017500031480068401C30490860084600680A2883
:101760002CD12E4909682E4A1268891A4207928C98
:1017700011442C4A1268881A04F090FD80F0004A47
:10178000504604F0BFFB06460022274B03F0D0FE74
:101790000446264A264B03F0CBFE804603F0DAFDD2
:1017A000244908604FF08040808C1E4908601B4827
:1017B00000681B4908600020174908601E4A1F493D
:1017C0001F48FFF77FFC1E48006803F067FB1D49B8
:1017D00008601848006803F003FC1B4908600846CD
:1017E000006804F01FFD04461648006804F01AFD66
:1017F0000546214602F0E4F91448006808B90120C2
:1018000000E00020114908600121024800F03CF985
:10181000BDE8F087002C01403800002014000020B3
:10182000280000202C000020006098407B14AE4768
:10183000E17A843F24000020200000201C000020CA
:10184000180000203000002034000020B4012242A3
:1018500000B589B001210846FFF7AAFB0121042049
:10186000FFF7B6FB0320ADF8200028208DF82300F9
:1018700003208DF8220008A92448FFF73AF84FF416
:10188000C360ADF818000020ADF81400ADF81A00E0
:10189000ADF8160005A94FF0804000F037FB0A2391
:1018A0001A460321580700F00DF90020ADF8080092
:1018B000ADF80A000120ADF80C000020ADF80E00D4
:1018C000ADF8100002A94FF0804000F02DF9012280
:1018D0001146900700F07EF91C208DF804000020CE
:1018E0008DF805008DF8060001208DF8070001A88D
:1018F000FFF724FB00214FF0804000F0D9FA0121CE
:10190000880700F0C4F809B000BD000000080140DD
:1019100010B50121880700F0F6F8012819D18007D9
:101920000088C0F3001028B90A480068401C094923
:1019300008600AE04FF080400088C0F3001020B13A
:1019400004480068401E034908600121880700F030
:101950009BF810BD1400002030B589B005460C4638
:1019600001210420FFF724FB01210820FFF730FBB1
:101970004020ADF8200018208DF8230003208DF8BA
:10198000220008A93848FEF7B4FF8020ADF82000F7
:1019900018208DF8230003208DF8220008A9324872
:1019A000FEF7A7FF4FF48070ADF8200018208DF8E7
:1019B000230003208DF8220008A92B48FEF799FF89
:1019C0004FF40070ADF8200018208DF8230003209C
:1019D0008DF8220008A92448FEF78BFFADF81850B7
:1019E000ADF814400020ADF81A00ADF8160005A9B6
:1019F0001E4800F08BFA6020ADF804000120ADF81D
:101A000006000020ADF80A00ADF80C0001A9174847
:101A100000F0EAF801A9154800F03CF901A91348C3
:101A200000F098F901A9114800F0EEF901210F48E2
:101A300000F039F808210D4800F022F908210B4880
:101A400000F07AF90821094800F0D4F90821074884
:101A500000F018FA0121054800F00AF801210348B6
:101A600000F015F809B030BD000C0140000800403E
:101A700021B1028842F08002028004E002884FF621
:101A80007F731A4002807047CA430282704721B1B7
:101A9000028842F00102028004E002884FF6FE73E1
:101AA0001A400280704731B1B0F8442042F400423D
:101AB000A0F8442005E0B0F84420C2F30E02A0F8DC
:101AC00044207047F0B50C4615461E460021002202
:101AD00000230189028B038C4FF6F87739402143AC
:101AE0004FF6FC473A4040F201173A434FF6DD7794
:101AF0003B404FF6FF7707EA06172F433B43018130
:101B000002830384F0BD30B5024600200023002488
:101B1000158A05EA0103958905EA010413B10CB1A0
:101B2000012000E0002030BD70B505460C46244879
:101B300085420ED0234885420BD0B5F1804F08D0A6
:101B40002148854205D02148854202D0204885425F
:101B500000D100E000BF208850B92389A2886188A5
:101B60002846FFF799FCE188284600F0A3F925E014
:101B7000208804280AD12389A28861882846FFF793
:101B8000CBFCE188284600F09EF917E02088082861
:101B90000AD12389A28861882846FFF709FDE188D8
:101BA000284600F09DF909E02389A288618828462B
:101BB000FFF746FDE188284600F09BF970BD000064
:101BC000002C0140003401400004004000080040A7
:101BD000000C00401AB183890B43838102E08389A2
:101BE0008B4383817047000070B5002400220023DE
:101BF000058C4FF6FE7635400584028C8388048B75
:101C00004FF68F752C40B51E2C400D882C43751E49
:101C10002A400D892A434D882A43144DA8420BD0EF
:101C2000134DA84208D0134DA84205D0124DA8422A
:101C300002D0124DA84213D14FF6F7752A404D89B4
:101C40002A434FF6FB752A408D882A434FF6FF65DD
:101C50002B404FF6FF552B408D892B43CD892B43CD
:101C600083800483CD888586028470BD002C01406A
:101C70000034014000400140004401400048014060
:101C80000A460021018B4FF6F77319401143018377
:101C90007047000070B5002400220023058C4FF629
:101CA000EF7635400584028C8388048B48F6FF75F7
:101CB0002C404FF6FF452C400D884FF6FF7606EA84
:101CC00005252C434FF6DF752A400D8906EA0515D8
:101CD0002A434D8806EA05152A43154DA84202D02D
:101CE000144DA8421DD14FF67F752A404D894FF6FD
:101CF000FF7606EA05152A434FF6BF752A408D8800
:101D000006EA05152A434FF6FF352B404FF2FF75C3
:101D10002B408D8906EA85052B43CD8906EA85058A
:101D20002B4383800483CD880587028470BD000027
:101D3000002C0140003401400A460021018B4FF283
:101D4000FF7319404FF6FF7303EA0223194301831F
:101D50007047000070B5002400220023058C4FF668
:101D6000FF6635400584028C8388848B4FF68F751F
:101D70002C404FF6FC752C400D882C434FF6FF5538
:101D80002A400D894FF6FF7606EA05252A434D883D
:101D900006EA05252A43154DA84202D0144DA84253
:101DA0001DD14FF2FF752A404D894FF6FF7606EAA6
:101DB00005252A434FF6FF352A408D8806EA05257A
:101DC0002A434EF6FF752B404DF6FF752B408D894B
:101DD00006EA05152B43CD8906EA05152B438380BA
:101DE0008483CD888587028470BD0000002C01406B
:101DF000003401400A460021818B4FF6F7731940E9
:101E0000114381837047000070B500220023002435
:101E1000058C4EF6FF7635400584038C8488828BD2
:101E200048F6FF752A404FF6FF452A400D884FF6C9
:101E3000FF7606EA05252A434DF6FF752B400D89EE
:101E400006EA05352B434D8806EA05352B430B4D35
:101E5000A84202D00A4DA84208D14BF6FF752C408B
:101E60008D894FF6FF7606EA85152C4384808283A0
:101E7000CD88A0F84050038470BD0000002C0140C4
:101E8000003401400A460021818B4FF2FF73194054
:101E90004FF6FF7303EA022319438183704781865B
:101EA00070470187704781877047A0F840107047DE
:101EB00081847047028B4FF6F3731A400283028BC2
:101EC0000A4302837047028B4FF2FF331A400283AA
:101ED000028B4FF6FF7303EA01231A430283704714
:101EE000828B4FF6F3731A408283828B0A4382837C
:101EF0007047828B4FF2FF331A408283828B4FF6FA
:101F0000FF7303EA01231A43828370470022028889
:101F10001D4B98420ED01D4B98420BD0B0F1804F14
:101F200008D01B4B984205D01A4B984202D01A4B4E
:101F3000984204D14FF68F731A404B881A43174BBF
:101F4000984207D0164B984204D04FF6FF431A40F0
:101F5000CB881A4302808B8883850B8803850A4BC4
:101F600098420BD0094B984208D00E4B984205D0AE
:101F70000D4B984202D00D4B984201D10B7A03864B
:101F80000123838270470000002C0140003401408F
:101F90000004004000080040000C00400010004019
:101FA000001400400040014000440140004801404E
:101FB00010B540F225511D4800F04AF810B31B48F7
:101FC00000F002F9C4B21A48008800F40040C8B911
:101FD0001748008800F4804060B10A2C03D000202C
:101FE0001349088020E01248008840F4004010495E
:101FF000088019E00D2C06D10D48008840F480407F
:102000000B49088010E00A480088C0F30D00094918
:102010000C5407480088401C054908800846008881
:10202000C72801DD0020088010BD000000380140F5
:10203000F40000201C01002021B1828942F40052EA
:10204000828104E082894DF6FF731A4082817047D5
:1020500070B50246002400230025002040F66A16D1
:10206000B14200D100BFC1F3421501F01F030126A8
:1020700006FA03F3012D02D19689334006E0022DC2
:1020800002D1168A334001E0968A33400C120126B1
:1020900006FA04F41688344013B10CB1012000E0B4
:1020A000002070BDF0B50346002400260025002066
:1020B00040F66A17B94200D100BF1846C1F3421476
:1020C00001F01F06012707FA06F5012C01D10C309B
:1020D00004E0022C01D1103000E014301AB107687E
:1020E0002F43076002E00768AF430760F0BD0000C0
:1020F0002DE9F04786B005460E460024A24600BFF3
:10210000A1460027B08900B100BF2F462C8A4CF6AB
:10211000FF700440F08804432C82AC894EF6F31023
:102120000440B08831890843718908430443AC8175
:10213000AC8A4FF6FF400440B0890443AC8201A84A
:10214000FEF756FF1F48874202D1DDF810A001E0DC
:10215000DDF80CA0A88900F4004040B10AEBCA00E9
:1021600000EB0A1031684900B0FBF1F807E00AEB18
:10217000CA0000EB0A1031688900B0FBF1F8642056
:10218000B8FBF0F004012009642101FB1089A88943
:1021900000F4004040B1322000EBC900B0FBF1F088
:1021A00000F00700044308E0322000EB091064212E
:1021B000B0FBF1F000F00F0004432C8106B0BDE845
:1021C000F08700000038014001468888C0F308000D
:1021D000704700BFFEE7490050EAC12018BF042045
:1021E0004A0D18BF40F0010040F2FF72B2EB515FA0
:1021F00008BF40F00200012808BF052070472DE904
:10220000F0414F1E00EBC7010446D1E9000115461D
:102210001E4637F006020DD02A46334603F062FB15
:102220007F1E04EBC703D3E9002303F0C5F837F0A2
:102230000602F1D1022F25D0042F13D0062F18BF8C
:10224000BDE8F0812A46334603F04CFBD4E90A236B
:1022500003F0B2F82A46334603F044FBD4E90823DE
:1022600003F0AAF82A46334603F03CFBD4E90623E0
:1022700003F0A2F82A46334603F034FBD4E90423E2
:1022800003F09AF82A46334603F02CFBD4E90223E4
:1022900003F092F82A46334603F024FBD4E90023E6
:1022A000BDE8F04103F088B8012204F006BA03F05B
:1022B00083B8002213461046114603F039B90000D6
:1022C000024A0020110704F0F8B9000001FDFFFFE9
:1022D00000BF70472DE9FE4F06460F4600256846B1
:1022E00001F0DCF9002442E056F8240057F82410ED
:1022F000A0EB010ABAF1000F01DB514601E0CAF17F
:102300000001084603F0CAFF83464FF08F4103F0F7
:1023100093FE80465DF82400002103F04FFF16D0A5
:102320005DF82410404603F087FE82464FF07E5150
:1023300004F01CF9814629F0004A0F48416A5046D2
:1023400004F0D8F812D20120A04005430EE00A485C
:10235000C169404603F0CEFF05D30748016A4046F5
:1023600004F0C8F802D20120A0400543641C032CED
:10237000BADB2846BDE8FE8F706700082DE9F04DF6
:102380008D4F21F0004A86B005460C46BA452ADB3F
:10239000AAEB070028430AD08848824501DC1AD1FD
:1023A000CDB106B02846BDE8F04DFFF77DBF844AA9
:1023B000844B284603F096FA07460E46824A834B22
:1023C0002846214603F08EFA06B03A463346BDE869
:1023D000F04D02F0F1BF0120FEF772F806B0BDE843
:1023E000F04DFFF766BF7A48824542DABAF1795F6D
:1023F0000BDA2846FFF7EFFE042808BFFFF760FF5F
:10240000284606B02146BDE8F08D2A460B46104608
:1024100003F068FA834602466E480E460B460621D4
:102420007844FFF7ECFE5A46334603F05BFA8046E9
:1024300069488A465A46334604217844FFF7DFFE4E
:102440005A46334603F04EFA00223B4602F0B4FFF0
:1024500002460B464046514603F06AF82A46234698
:1024600003F040FA06B02A462346BDE8F04D02F0DC
:10247000A3BF284624F0004100223D463B4603F01E
:1024800065FB4FF0FF3204F018F906460246534848
:102490000F460B4606217844FFF7B1FE32463B4615
:1024A00003F020FACDE900014D4832463B460421B5
:1024B0007844FFF7A4FE32463B4603F013FA0022AD
:1024C0002B4602F079FF834602913046394602F0EE
:1024D000CBFE804643480D46504517DCDDE9000140
:1024E0005A46029B03F024F842462B4603F0FAF9C1
:1024F00042462B4602F060FF012204F0DEF8304A2B
:10250000304B03F015FC304A304B4CE04FF0000AE2
:1025100052460B46404602F04FFFCDE903105246AB
:102520002B461046194603F0DDF932463B4603F0D0
:102530000DFBDDE9033202F0FBFF06460F46DDE945
:1025400000015A46029B02F0F3FF834600910122EC
:102550003046394604F0B1F8194A1A4B03F0F6FA3E
:1025600006460F4601224046294604F0A6F85A4680
:10257000009B03F0B7F932463B4603F0D9FB064611
:102580000F4601225046294604F097F80E4DDFF819
:1025900058802A46434603F0D9FA32463B4603F0B8
:1025A000D5FA2A46434603F0D1FA002CD8BF81F071
:1025B000004106B0BDE8F08D0000F03F0000F07F64
:1025C000075C143326A6913C182D4454FB21F93F97
:1025D0000000E03F6C4F0000824F0000F64E00000C
:1025E0000C4F00003333EF3FFB21E93F2DE9F84F5B
:1025F00004460D4621F0004000917349814211DCF0
:102600007249884201DC06D12CB120462946BDE83A
:10261000F84FFFF749BE6E48002DCCBF6D496E499B
:10262000BDE8F88F6D49814211DD6D498142D8BF07
:102630004FF0FF366DDD20462946FFF7CCFD04281C
:1026400008BFFFF73DFE20462946BDE8F88F6549E3
:10265000654F25F00045814233DD6449814219DD33
:10266000002632464FF080432046294602F0A4FE61
:1026700080468A4601222046294604F01EF80022A0
:102680003B4603F055FB4246534602F051FF0446D9
:102690000D463EE001260022BA463B46204629462A
:1026A00002F08AFE80460F46002253462046294605
:1026B00003F03EFB42463B4602F03AFF04460D461D
:1026C00027E04B4981421BDDDFF828A102260022CA
:1026D00053462046294603F005F900223B4602F006
:1026E0006BFE80460F46002253462046294603F0E3
:1026F0001FFB42463B4602F01BFF04460D4608E026
:10270000032622462B4600203B4902F011FF0446D7
:102710000D4622462B461046194603F0E3F88B4639
:10272000824602460B4603F0DDF807460246334870
:1027300088460B4606217844FFF761FD52465B460A
:1027400003F0D0F882462E488B463A464346052190
:102750007844FFF754FD3A46434603F0C3F8024677
:102760000B46002E504659460CDA02F025FE224652
:102770002B4603F0B7F801B022462B46BDE8F04FD8
:1027800003F0E4B902F018FE22462B4603F0AAF843
:102790001C4A7A4402EBC603D3E9002303F0C8FACB
:1027A00022462B4603F0C4FA174A7A4402EBC603CA
:1027B000D3E9002303F0CAF9009A002AB8BF81F0D8
:1027C0000041BDE8F88F0000000010440000F07FD9
:1027D000182D4454FB21F93FFB21F9BF0000DC3FD9
:1027E0000000203E0000F33F0000F03F0000E63F05
:1027F000008003400000F83F0000F0BF0E4D0000D5
:10280000CC4C00006A4C0000324C00002DE9F04D29
:102810009446CCF1000423F000464CEA0404524FE5
:1028200046EAD4749A46884621F00042BC4206D853
:10283000454240EA050442EAD474BC4204D9BDE8EA
:10284000F04D6246FFF733BDAAF14055A5F17F6513
:1028500055EA0C040BD0022404EAAA74434DDFF8B5
:1028600010E144EAD87452EA000B04D00CE0BDE851
:10287000F04DFFF7BBBE002C14BF012CBDE8F08D5E
:10288000022C30D0032C32D056EA0C0B0AD0BE42B8
:1028900020D1BA4209D126F0804622F08042334648
:1028A000114617E000291ADB25E0DFF8C8B0FB4429
:1028B000002C04BFDBE90001BDE8F08D012C02BF54
:1028C000DBE9000181F00041BDE8F08D022C0AD067
:1028D000032C0CD0BA4212D1B8F1000F0BDA234806
:1028E0002549BDE8F08D28462449BDE8F08D2846ED
:1028F0007146BDE8F08D1D482149BDE8F08D921B61
:1029000012153C2AC4BF19481D490EDCBAF1000F4C
:10291000BEBF12F13C0F0020014606DB624602F00A
:1029200007FE21F00041FFF761FE002C08BFBDE863
:10293000F08D012C04BF81F00041BDE8F08D114AFB
:10294000114B022C07D003F0F3F92A46BDE8F04DF5
:102950000A4B03F0EDB903F0EBF92A46BDE8F04D60
:10296000064B03F0F3B800000000F07F182D44542C
:10297000FB2109C0C64B0000FB21F9BFFB21094028
:10298000FB21F93F075C143326A6A13C2DE9F04159
:102990000446E07800F0C006E07800F03F0560787B
:1029A00000F0010098B1EF102846E91705EB5171CE
:1029B000C910A5EBC101491C01F0FF080B480068D4
:1029C00020B10A48414602683846904700BF607807
:1029D00000F0080030B10548406818B1B011034A52
:1029E000516888470020BDE8F08100000C010020FC
:1029F00010B56FF00400FEF709FD0A4800680A49A7
:102A0000B0FBF1F0094908700846007800EB40017E
:102A1000C1EBC0104FF6FF7101EAC0000449088005
:102A200010BD00000000002000127A00EC00002021
:102A3000EE0000200146114A12884A434FF0E0237D
:102A40005A6100229A611A46126942F001021A6123
:102A500000BF4FF0E022106900F001021AB100F44B
:102A60008032002AF5D04FF0E022126922F00102F4
:102A70004FF0E0231A6100229A617047EE000020B7
:102A80000146114A12784A434FF0E0235A6100226E
:102A90009A611A46126942F001021A6100BF4FF0B2
:102AA000E022106900F001021AB100F48032002A1D
:102AB000F5D04FF0E022126922F001024FF0E0233E
:102AC0001A6100229A617047EC00002038B5044674
:102AD00064B120208DF8000028208DF801003020FE
:102AE0008DF8020038208DF8030004E0A3220421B1
:102AF0006846FDF75DFC6A46042140F69E2002F020
:102B00008BF901F07BFD38BD3EB5044602208DF8FF
:102B10000000CA208DF80100E3208DF80200092092
:102B20008DF803006A460421682002F075F9A3209D
:102B30008DF8000004F0400048B1C0208DF801007D
:102B4000C8208DF80200C2208DF8030006E0A32003
:102B50008DF801008DF802008DF8030004F4C070B8
:102B600048B1C4208DF80400CC208DF80500C620A3
:102B70008DF8060006E0A3208DF804008DF805000E
:102B80008DF80600A3208DF807008DF808008DF859
:102B900009006A460A2140F6A72002F03DF904F038
:102BA000030018B120208DF8000002E0D8208DF835
:102BB00000006A46012140F6B62002F02DF904F02B
:102BC000200018B1012000F0ADF802E0002000F074
:102BD000A9F804F4C07008B304F4807060B1B220A6
:102BE0008DF800008B208DF80100B6208DF80200D2
:102BF0009B208DF803000BE0B0208DF800008020B2
:102C00008DF80100B4208DF8020090208DF80300AB
:102C10006A46042140F6A22002F0FEF804F001000A
:102C200020B3F8208DF800006A4601214FF40B60B4
:102C300002F0F2F8FA21072000F02CFC072000F047
:102C4000F3FB012000F013FC642000F0F3FC4FF4D0
:102C5000FA7000F002FDC821304800F0A3FB2820E4
:102C600000F0BCFB0A2000F0CCFB08E0D8208DF877
:102C700000006A4601214FF40B6002F0CDF804F029
:102C8000020018B1D9208DF8000002E0D8208DF89C
:102C900000006A46012140F23D7002F0BDF804F0E8
:102CA000040018B1012000F069F802E0002000F0F3
:102CB00065F804F0100018B10120FFF707FF02E0EB
:102CC0000020FFF703FF44F008001549488101F098
:102CD00095FC00201249887304F0400018B10846A2
:102CE000807B801D887304F4C07020B10C48807B09
:102CF000801D0B49887304F0140020B10848807BC4
:102D000010300749887304F0030020B10448807B29
:102D1000001D0349887300203EBD000009E3CA027C
:102D20000C0100203EB504466CB10EA1D1E9002093
:102D30008968CDE9002002916A4609214FF4976025
:102D400002F06AF83EBD0AA2D2E900109268CDE90D
:102D5000010200916A4609214FF4976002F05CF885
:102D6000F0E70000B8AAB38DB4980D355D000000FF
:102D7000B8AAAAAAB088C3C5C700000038B50446DF
:102D800064B1C0208DF80000C2208DF80100C4207D
:102D90008DF80200C6208DF8030004E08B22042188
:102DA0006846FDF705FB6A46042140F6982002F0CC
:102DB00033F801F023FC38BD10B5C8234FF480620E
:102DC000024940F6F63001F0ADFA10BD98670008F0
:102DD0002DE9F04F8DB00746884615469946DDE946
:102DE000166B0024002030806B49887B5A4605A969
:102DF00001F064FB18B1601E0DB0BDE8F08F6648AD
:102E0000807A00F01400002867D09DF814000006B6
:102E10009DF8151040EA01409DF8161040EA012087
:102E20009DF81710084328609DF8180000069DF8CB
:102E3000191040EA01409DF81A1040EA01209DF85F
:102E40001B10084368609DF81C0000069DF81D10CB
:102E500040EA01409DF81E1040EA01209DF81F1035
:102E60000843A8609DF8200000069DF8211040EA64
:102E700001409DF8221040EA01209DF823100843EC
:102E8000E86004F11000C4B228680014019068687A
:102E900000140290A86800140390E86800140490DD
:102EA00001984043029901FB0100039901FB0100D5
:102EB000049901FB010ABAF1706F02DBBAF1885F75
:102EC00005DD01F09BFB00203080401E94E7B6F941
:102ED000000040F48070308000BF2F48807A00F0FE
:102EE000400020B305A9601C085C095D40EA012090
:102EF00000B2A8F8000005A9E01C095C05AAA01C06
:102F0000105C41EA002000B2A8F8020005A9601D8B
:102F1000095C201D105C41EA002000B2A8F8040002
:102F2000A01DC4B2B6F9000040F0080030801A4875
:102F3000408900F4C07008B305A9601C085C095DF5
:102F400040EA012000B2388005A9E01C095C05AA0E
:102F5000A01C105C41EA002000B2788005A9601D29
:102F6000095C201D105C41EA002000B2B880A01D61
:102F7000C4B2B6F9000040F0700030800648807A94
:102F800000F0030018B105A90819FFF7FFFC484637
:102F900001F082FF00202FE70C01002070B588B0FF
:102FA000064601A801F012F8BDF804000021C9038B
:102FB00041EA5045C4034448007A00F0030056F843
:102FC000200005904048007A00F0040010B10598F8
:102FD000404205903C48007AC0F3C10056F82000FA
:102FE00006903948007A00F0200010B1069840425F
:102FF00006903548007AC0F3811056F820000790FB
:103000003148008900F4807010B107984042079061
:103010000598C117A0FB042301FB043100FB051038
:10302000810041EA927005900698C117A0FB042325
:1030300001FB043100FB0510810041EA927006900B
:103040000798C117A0FB042301FB043100FB051006
:10305000810041EA927007900598000E8DF80800F3
:103060000598000C8DF809000598000A8DF80A00F3
:103070000598C0B28DF80B000698000E8DF80C0074
:103080000698000C8DF80D000698000A8DF80E00C9
:103090000698C0B28DF80F000798000E8DF810004A
:1030A0000798000C8DF811000798000A8DF812009F
:1030B0000798C0B28DF8130002AA0C214FF42570B6
:1030C00001F0AAFE08B070BD0C01002030B585B03B
:1030D000044616A207CA02AB07C3C82C03DD4FF093
:1030E000FF3005B030BDC82090FBF4F0401E85B223
:1030F000280A8DF80000E8B28DF801006A46022126
:1031000040F2162001F088FE10B14FF0FF30E8E7E2
:1031100002AA0C2140F6C12001F07EFE10B14FF052
:10312000FF30DEE7044884810020DAE7FEF2ABC41A
:10313000AAF1DFDFBBAFDFDF0C0100201FB50446C3
:103140004848007A00F0030054F8200001904548F8
:10315000007A00F0040010B101984042019041480B
:10316000007AC0F3C10054F8200002903D48007A74
:1031700000F0200010B10298404202903948007AD5
:10318000C0F3811054F8200003903648008900F401
:10319000807010B10398404203903349019880FB3E
:1031A0000101800F40EA810001902F49029880FBC5
:1031B0000110820042EA917002902B49039880FB33
:1031C0000110820042EA917003900198000E8DF880
:1031D00000000198000C8DF801000198000A8DF89C
:1031E00002000198C0B28DF803006A4604214FF432
:1031F000747001F011FE18B14FF0FF3004B010BD33
:103200000298000E8DF800000298000C8DF8010065
:103210000298000A8DF802000298C0B28DF80300EF
:103220006A4604214FF4757001F0F6FD10B14FF0BD
:10323000FF30E3E70398000E8DF800000398000CC0
:103240008DF801000398000A8DF802000398C0B2BF
:103250008DF803006A4604214FF4767001F0DCFD1E
:10326000CCE700000C01002009E3CA0210B586B0CB
:10327000044647A00068039046A00068029046A05C
:103280000068019045A00068009004F0030003A9C5
:10329000085C8DF8140003A8C4F3C101405C8DF8EC
:1032A000150003A8C4F38111405C8DF8160004F0EA
:1032B000030002A9085C8DF8100002A8C4F3C10144
:1032C000405C8DF8110002A8C4F38111405C8DF8B8
:1032D000120005AA032140F2264001F09DFD18B11D
:1032E0004FF0FF3006B010BD04AA032140F22A407F
:1032F00001F092FD10B14FF0FF30F3E70198059017
:103300000098049004F0040058B19DF8140040F0B7
:1033100001008DF814009DF8100040F001008DF8B8
:10332000100004F0200058B19DF8150040F0010095
:103330008DF815009DF8110040F001008DF8110086
:1033400004F4807058B19DF8160040F001008DF82B
:1033500016009DF8120040F001008DF8120005AA39
:1033600003214FF4886001F057FD10B14FF0FF309A
:10337000B8E704AA032140F2314001F04DFD10B13D
:103380004FF0FF30AEE7064804810020AAE70000B6
:103390004CCD6C000CC92C003656760026466600D3
:1033A0000C010020F8B505460E464FF47A7095FBE7
:1033B000F0F000FB06F4200E8DF80000200C8DF8D4
:1033C0000100200A8DF80200E0B28DF803006A4681
:1033D00004214FF4AE7001F01FFDF8BD38B504466E
:1033E000052094FBF0F084B220128DF80000E0B2CA
:1033F0008DF801006A4602214FF4AD7001F00CFD1A
:1034000038BD38B50446052094FBF0F084B2201294
:103410008DF80000E0B28DF801006A4602214FF4F9
:10342000AC7001F0F9FC38BD38B5044600200090BE
:1034300004F0010020B19DF8000040F03000009041
:1034400004F0020020B19DF8000040F00C00009054
:1034500004F0040020B19DF8000040F0030000904B
:103460006A4601214FF4A47001F0D6FC38BD38B58E
:103470000446012C01DA012402E0042C00DD0424BE
:10348000601EC0B200906A46012140F24F1001F068
:10349000C3FC38BD2DE9FC4706460F4606F0070081
:1034A00010B1B7F5C86F03DD4FF0FF30BDE8FC8702
:1034B000384602F00BFF8146594902F0BDFD8046B7
:1034C000684600F05DFD9DF80000022806D0042843
:1034D00016D0082826D0102848D135E04FF08D416D
:1034E000404602F03BFF814602F0B8FE84B24D49EF
:1034F000404602F033FF814602F0B0FE85B238E06C
:103500004FF08C41404602F029FF814602F0A6FEB2
:1035100084B24549404602F021FF814602F09EFEFA
:1035200085B226E04FF08B41404602F017FF8146FE
:1035300002F094FE84B23D49404602F00FFF8146FE
:1035400002F08CFE85B214E04FF08A41404602F052
:1035500005FF814602F082FE84B23549404602F002
:10356000FDFE814602F07AFE85B202E04FF0FF30A8
:103570009CE700BF20128DF80400E0B28DF8050032
:1035800028128DF80600E8B28DF8070006F0010059
:10359000A0B101AA02214FF4EA7001F03DFC10B184
:1035A0004FF0FF3082E70DF1060202214FF49270D6
:1035B00001F032FC10B14FF0FF3077E706F0020067
:1035C000A0B101AA02214FF4EC7001F025FC10B16A
:1035D0004FF0FF306AE70DF1060202214FF49470BC
:1035E00001F01AFC10B14FF0FF305FE706F0040065
:1035F000A0B101AA02214FF4EE7001F00DFC10B150
:103600004FF0FF3052E70DF1060202214FF49670A1
:1036100001F002FC10B14FF0FF3047E7002045E712
:1036200000004843000040460000C04500004045FF
:103630000000C04438B50446052094FBF0F085B284
:1036400028128DF80000E8B28DF801006A460221C8
:103650004FF4EF7001F0E0FB38BD38B504460520AB
:1036600094FBF0F085B228128DF80000E8B28DF8D6
:1036700001006A4602214FF4ED7001F0CDFB38BD28
:1036800000BF054A128802F04002002AF9D0C2B2F7
:10369000014B1B1D1A807047003801407CB5054660
:1036A00028494968087801AB04220D2100F062FB2B
:1036B00008B107207CBD9DF80700C0F301109DF8FC
:1036C000041001F0E00140EAE1008DF800009DF8EF
:1036D0000700C0F381009DF8051001F0E00140EA09
:1036E000E1008DF801009DF8070000F003009DF84F
:1036F000061001F0E00140EAE1008DF8020000242C
:103700001CE01DF8040018B9002045F8240013E05F
:103710000D4845F8240006E055F824000B4902F056
:103720001DFE45F824001DF80400401EC0B20DF82F
:1037300004000028F0D100BF601CC4B2032CE0DB01
:103740000020B7E7980000207B14AE3E1D5A843F4E
:103750002DE9F04F87B005460C46914601208DF8C3
:10376000100000208DF81100FE4A1268917CFD4A7D
:103770005268107804AB022200F037FB20B14FF002
:10378000FF3007B0BDE8F08FC820FFF753F90020E5
:103790008DF81000F34A1268D17BF24A5268107813
:1037A00004AB012200F021FB10B14FF0FF30E8E73D
:1037B000EC4A12685179EB4A5268107804AB012246
:1037C00000F013FB10B14FF0FF30DAE7E54A126862
:1037D000917CE44A5268107804AB012200F005FBAA
:1037E00010B14FF0FF30CCE7DE4A1268D17DDD4AE0
:1037F0005268107804AB012200F0F7FA10B14FF0D4
:10380000FF30BEE7D74A12681179D64A526810785D
:1038100004AB012200F0E9FA10B14FF0FF30B0E73D
:103820000C208DF81000CF4A12681179CD4A5268E9
:10383000107804AB012200F0D8FA10B14FF0FF303D
:103840009FE70F20FFF7F6F8C648806A407A8DF8A8
:103850001000C44A12689178C24A5268107804ABCA
:10386000012200F0C2FA10B14FF0FF3089E7BD48E5
:10387000806A007A8DF81000BA4A12685178B94A05
:103880005268107804AB012200F0AFFA10B14FF08B
:10389000FF3076E7B9F1000F07D0B248806A807A2E
:1038A00040F0E0008DF8100004E0AE48806A807AB5
:1038B0008DF81000AB4A12689179AA4A52681078C4
:1038C00004AB012200F091FA10B14FF0FF3058E73D
:1038D000B9F1000F07D0A348806AC07A40F0E00039
:1038E0008DF8100003E0A048C07A8DF810009D4AC2
:1038F0001268D1799B4A5268107804AB012200F01B
:1039000074FA10B14FF0FF303BE7B9F1000F02D06D
:10391000C820FFF78FF840208DF81000914A1268F8
:103920001179904A5268107804AB012200F05DFAD8
:1039300010B14FF0FF3024E778208DF81000894A4D
:1039400012685179874A5268107804AB012200F05E
:103950004CFA10B14FF0FF3013E783498889FFF725
:1039600069F800208DF810007E4A126851797D4A6E
:103970005268107804AB012200F037FA10B14FF012
:10398000FF30FEE6774A1268917A764A52681078DC
:1039900004AB022200F0EEF910B14FF0FF30F0E678
:1039A0009DF811009DF8101040EA012B0C209BFBA4
:1039B000F0F0C6B20020A86068602860A060606077
:1039C0002060824665E0674A1268D17A654A52688B
:1039D000107804AB0C2200F0CDF910B14FF0FF309D
:1039E000CFE69DF811009DF8101040EA012000B2CA
:1039F000ADF808009DF813009DF8121040EA012070
:103A000000B2ADF80A009DF815009DF8141040EAC8
:103A1000012000B2ADF80C00BDF908102068084480
:103A20002060BDF90A10606808446060BDF90C10A0
:103A3000A0680844A0609DF817009DF8161040EAA1
:103A4000012000B2ADF800009DF819009DF8181093
:103A500040EA012000B2ADF802009DF81B009DF87D
:103A60001A1040EA012000B2ADF80400BDF90010C0
:103A7000286808442860BDF9021068680844686036
:103A8000BDF90410A8680844A8600AF1010000F01C
:103A9000FF0AB24597DB3448D0F800C02868C11748
:103AA000090441EA10410704624600233846FCF746
:103AB000B2FB32460023CDE90201FCF7ACFB2860E3
:103AC0002948D0F800C06868C117090441EA1041CC
:103AD0000704624600233846FCF79DFB324600236C
:103AE000CDE90201FCF797FB68601F48D0F800C0E1
:103AF000A868C117090441EA10410704624600237F
:103B00003846FCF788FB32460023CDE90201FCF77A
:103B100082FBA8601448D0F804C02168C8170004CC
:103B200040EA11480F046246002338464146FCF73C
:103B300072FB32460023CDE90201FCF76CFB2060EA
:103B40000948D0F804C06068C117090441EA10416F
:103B50000704624600233846FCF75DFB324600232B
:103B600004E000009800002070670008CDE9020121
:103B7000FCF751FB60601148D0F804C0A068C11781
:103B8000090441EA10410704624600233846FCF765
:103B900042FB32460023CDE90201FCF73CFBA0606A
:103BA000A068002804DDA068A0F58030A06003E0D4
:103BB000A06800F58030A0600020E2E57067000892
:103BC0002DE9F34F83B08946484601F038FE074699
:103BD0004FF03332204B01F085FE05460E46039828
:103BE00001F02DFE07464FF066321C4B01F07AFEC5
:103BF0002A463346CDE9000101F0DEFB824601F0A2
:103C0000EFFD0446002C10DBA1B21548FEF749F980
:103C100000211348FEF743F9A1B21148FEF745F918
:103C200000210F48FEF73FF913E0002C11DA0021C4
:103C30000B48FEF736F9604281B20948FEF72FF9CA
:103C400000210748FEF731F9604281B20448FEF7CF
:103C50002AF905B0BDE8F08F3333D33F6666E63FFF
:103C6000000800402DE9FC5F06460F4600253D494F
:103C70004968087801AB03220D2100F07BF810B1F0
:103C80000720BDE8FC9F9DF8040000F01F008DF8A0
:103C900004009DF8050000F01F008DF805009DF858
:103CA000060000F01F008DF80600002456E056F8CC
:103CB000240057F82410A0EB010BBBF1000F01DB2F
:103CC000594601E0CBF10001084602F0E7FA4FF057
:103CD0008F41009002F0B0F9814601A8005D68B301
:103CE0002149086802F0F2FA834659461F4802F05B
:103CF000A3F9804604E01E49404602F02FFB8046AF
:103D000001A8005D401EC0B201A908550028F2D1EB
:103D10004146484602F090F983464FF07E5102F04A
:103D200025FC82462AF0004B0F488169584602F074
:103D3000E1FB12D20120A04005430EE00A480169D0
:103D4000484602F0D7FA05D307484169484602F0D1
:103D5000D1FB02D20120A0400543641C032CA6DB4A
:103D600028468EE7980000207067000800B04C4598
:103D700054E3853F2DE9F04106460F4614461D46A3
:103D8000FCF746FF10B90120BDE8F0817106080E6E
:103D9000FCF706FFFCF794FF18B9FCF76DFF012054
:103DA000F2E73846FCF7FCFEFCF78AFFFCF730FF31
:103DB000012101EB4601C8B2FCF7F2FEFCF780FFDF
:103DC0000DE0012C04D10020FCF7B4FE287003E0C4
:103DD0000120FCF7AFFE28706D1C601EC4B2002CE1
:103DE000EFD1FCF749FF0020CEE72DE9F041054671
:103DF0000E4617469846FCF70BFF10B90120BDE8A8
:103E0000F0816906080EFCF7CBFEFCF759FF18B9E4
:103E1000FCF732FF0120F2E73046FCF7C1FEFCF769
:103E20004FFF00240BE018F80400FCF7B9FEFCF784
:103E300047FF18B9FCF720FF0020E0E7641CBC42F4
:103E4000F1DBFCF719FF0020D9E770B505462846DD
:103E500000F00FF80446E81C00F00BF844EAC0003C
:103E600084B2A81D00F005F844EA801084B2204610
:103E700070BD014691F90020002A01DD00201EE0FE
:103E800091F90020002A01DA042018E091F90120BC
:103E9000002A01DD012012E091F90120002A01DA57
:103EA00005200CE091F90220002A01DD022006E045
:103EB00091F90220002A01DA062000E0072070476D
:103EC0004FF4E13001F0F6F9FEF792FDFCF7F2FD58
:103ED000FCF7E4FFFCF704FCFCF7B4FF002140F61C
:103EE000B730FDF739FD4FF4FA70FEF7A3FDFDF78B
:103EF000AFFC4FF4FA70FEF79DFD472140F2E7302A
:103F0000FDF7EAFB03E04FF47A70FEF793FDFAE762
:103F100070B50446002624F00104184890F82400E7
:103F200008B1002070BD1548807A10B94FF0FF30FD
:103F3000F8E71248057C807A20401049087408464A
:103F4000007CA04202D04FF0FF3600E0002614B9FA
:103F50000A48007D18B1012001F03EF902E000207E
:103F600001F03AF93CB100F049FB20B10348057477
:103F70004FF0FF30D6E73046D4E70000980000202D
:103F800001461148407A30B1012807D0022808D0F4
:103F900003280CD108E0022008700BE00420087010
:103FA00008E00820087005E01020087002E04FF0DB
:103FB000FF30704700BF0448C07C18B10878400645
:103FC000000E08700020F4E7980000200146134816
:103FD000407A30B1012808D002280AD0032810D135
:103FE0000BE04FF4804008800EE041F69C700880A2
:103FF0000AE04FF48050088006E04FF4006008802B
:1040000002E04FF0FF30704700BF0448C07C10B1A1
:104010000888401008800020F5E700009800002084
:1040200001460248007C087000207047980000207C
:1040300001460F48007A30B1012807D0022809D084
:1040400003280FD10AE0FA2008800EE04FF4FA703E
:1040500008800AE04FF47A70088006E04FF4FA60B6
:10406000088002E00020088000BF00BF00207047E9
:104070009800002001460E48007A30B1012807D090
:10408000022808D003280CD108E00A4808600BE099
:104090000948086008E00948086005E00848086029
:1040A00002E04FF0FF30704700BF0020FBE7000048
:1040B0009800002000000343000083423333034292
:1040C0003333834101461248C07A082817D2DFE80B
:1040D00000F01704070A0D101318BC20088013E025
:1040E0006220088010E02A2008800DE0142008805B
:1040F0000AE00A20088007E00520088004E000BFED
:1041000000BF0020088000BF00BF002070470000F3
:10411000980000200146064890F8240010B14FF0A6
:10412000FF3070470248C08908800020F9E700008E
:10413000980000201CB580208DF80000654A1268A8
:10414000917C644A526810786B460122FFF74DFE5D
:1041500010B14FF0FF301CBD6420FEF76BFC002057
:104160008DF800005B4A1268917C5A4A52681078B8
:104170006B460122FFF739FE10B14FF0FF30EAE73E
:10418000544A1268917D534A526810786B46062251
:10419000FFF7F0FD10B14FF0FF30DCE79DF80500B0
:1041A000C007400F9DF8031001F0010140EA4100F3
:1041B0009DF8011001F0010140EA010494B1012CC5
:1041C00003D101214348C17431E0022C03D1002105
:1041D0004048C1742BE021463FA0FCF741F84FF066
:1041E000FF30B8E73B4A1268D1783A4A52681078F3
:1041F0006B460122FFF7BEFD10B14FF0FF30AAE77A
:104200009DF8000000F00F042CB93D48FCF728F899
:104210004FF0FF309FE7042C06D13AA0FCF720F8BE
:1042200001212C48C17402E000212A48C174FF21F9
:1042300028488172FF2027490872FF2125484172D2
:10424000C1724FF6FF71C181FF2101748174012198
:10425000017380F82210002180F823104175017548
:104260001630016041608160163880F8241080F8B3
:104270002510C1844FF4FA6000F05CFC10B14FF0DF
:10428000FF3068E7022000F025FB10B14FF0FF304F
:1042900061E72A2000F0C8FC10B14FF0FF305AE768
:1042A000322000F003FD10B14FF0FF3053E7002043
:1042B000FFF72EFE10B14FF0FF304CE7002000F06A
:1042C0004BFB10B14FF0FF3045E7002000F03CFD04
:1042D000002040E798000020556E737570706F7273
:1042E00074656420736F6674776172652070726F95
:1042F00064756374207265762025642E0A000000C0
:104300008074000848616C662073656E7369746917
:1043100076697479207061727420666F756E642E90
:104320000D0A00002DE9F04385B005460E46904683
:104330009946294890F8250020B14FF0FF3005B08C
:10434000BDE8F08316B94FF0FF30F8E7002423E012
:10435000281B102801DD102000E0281B87B232192D
:104360003946204600F058FD10B14FF0FF30E6E727
:1043700001AA3946204600F001F910B14FF0FF3094
:10438000DDE730193A4601A9FBF7E6FF10B16FF0FF
:104390000100D4E7E01984B2AC42D9DB4FEA28200F
:1043A0008DF8000008F0FF008DF801000A4A12683D
:1043B000917E094A526810786B460222FFF715FD7C
:1043C00010B14FF0FF30BAE70121034880F8251003
:1043D000A0F826900020B2E79800002038B50446E7
:1043E000282C02DD4FF0FF3038BDDCB9002000F092
:1043F000E5FB00208DF8000007208DF801002E4A13
:104400001268917C2C4A526810786B460222FFF7A2
:10441000ECFC10B14FF0FF30E6E7002126480175B3
:104420000020E1E7012000F0C9FB20208DF800000A
:10443000012C06D100208DF80100052000F0F4FBCE
:1044400017E0052C06DC01208DF80100052000F0A6
:10445000EBFB0EE0142C06DC02208DF801000A2094
:1044600000F0E2FB05E003208DF80100142000F0CD
:10447000DBFB9DF80100072101EB8010C0B28DF835
:1044800001000D4A1268917C0B4A526810786B4605
:104490000222FFF7AAFC10B14FF0FF30A4E7082179
:1044A0000548817200210173012101750020FFF789
:1044B0002FFD002098E7000098000020F8B5044682
:1044C0000F4616462C4890F8240010B94FF0FF30E4
:1044D000F8BD2948807A10B94FF0FF30F8E7264A36
:1044E0001268917A244A526810786B460222FFF7CC
:1044F00041FC10B14FF0FF30EAE79DF801009DF854
:10450000001040EA0125A54203DA00203070401E69
:10451000DEE7194840684088B5EB600F17DD164AA2
:104520001268517C144A526810786B460122FFF7DA
:1045300021FC10B14FF0FF30CAE79DF8000000F0F9
:10454000100020B100F05AF86FF00100C0E7E2B2AD
:10455000094B1B68D97A084B5B6818783B46FFF714
:1045600009FC10B14FF0FF30B2E795FBF4F0401EAC
:1045700030700020ACE7000098000020F8B5044639
:104580000D46164616B94FF0FF30F8BD1A48807A2E
:1045900010B94FF0FF30F8E720128DF80000E0B2BC
:1045A0008DF801009DF801002844134949684989A4
:1045B000884202DD4FF0FF30E7E70F4A1268117EB4
:1045C0000D4A526810786B460222FFF70EFC10B1BC
:1045D0004FF0FF30D9E7EAB2074B1B68597D064B15
:1045E0005B6818783346FFF7C5FB10B14FF0FF301A
:1045F000CBE70020C9E700009800002008B56D480F
:10460000807A10B94FF0FF3008BD00200090694A51
:104610001268D17B674A526810786B460122FFF717
:10462000E4FB10B14FF0FF30EEE7624A12685179B7
:10463000604A526810786B460122FFF7D6FB10B132
:104640004FF0FF30E0E75B4A12681179594A52682F
:1046500010786B460122FFF7C8FB10B14FF0FF3016
:10466000D2E7544890F82400002850D00C20009045
:10467000504A126811794F4A526810786B460122ED
:10468000FFF7B3FB10B14FF0FF30BDE7C020009043
:104690004848807A00F0010020B19DF8000040F009
:1046A00020000090434A12681179424A52681078FB
:1046B0006B460122FFF799FB10B14FF0FF30A3E7E3
:1046C0003C48407C10B10220009001E000200090A6
:1046D000384A1268D17B374A526810786B460122FB
:1046E000FFF783FB10B14FF0FF308DE70020009003
:1046F000304A126851792F4A526810786B4601226D
:10470000FFF773FB002852D04FF0FF307CE7042006
:104710000090284A12681179264A526810786B4630
:104720000122FFF762FB10B14FF0FF306CE7214828
:10473000807C20B91F48807A00F0010010B9402029
:10474000009001E0602000901A4A12681179194A1D
:10475000526810786B460122FFF747FB10B14FF00B
:10476000FF3051E71348407C10B10120009001E078
:10477000002000900F4A1268D17B0E4A52681078D0
:104780006B460122FFF731FB10B14FF0FF303BE7E2
:10479000084A12685179074A52681078054B10335D
:1047A0000122FFF722FB10B14FF0FF302CE7002071
:1047B0002AE70000980000202DE9F04F8DB08346D5
:1047C0000F4602200C90424890F8240020B10020AF
:1047D00000F068F9012600E0002603A8FFF728FC96
:1047E00005A8FFF7CDFB01A8FFF76CFC02A8FFF7B7
:1047F00091FC374890F80AA004A8FFF711FC0024A8
:1048000007E0002239465846FEF7A2FF00B902E051
:10481000641C022CF5DB00BF022C01D1002528E02E
:10482000002407E0012206A909A8FEF791FF00B9BC
:1048300002E0641C022CF5DB00BF022C01D1002534
:1048400017E006A93846FDF745FD00F0FF0809A965
:104850005846FFF707FA00F0FF090025B9F1000FED
:1048600001D145F00105B8F1000F01D145F0020575
:1048700000BFFF2016490872FF2115484172C1721E
:104880004FF6FF71C181FF21817201740121017313
:10489000BDF80C0000F04EF99DF8140000F01AF875
:1048A000BDF8040000F0C0F9BDF8080000F0FEF902
:1048B000504600F049FA9DF81000FFF729FB16B1A9
:1048C000012000F0EFF828460DB0BDE8F08F0000A1
:1048D0009800002038B504461E48807A10B94FF081
:1048E000FF3038BD022C06D0042C07D0082C08D08D
:1048F000102C0CD108E0002000900BE00820009064
:1049000008E01020009005E01820009002E04FF031
:10491000FF30E6E700BF0F48407A9DF80010B0EB8B
:10492000E10F01D10020DCE70A4A1268D179094A77
:10493000526810786B460122FFF757FA10B14FF01A
:10494000FF30CEE79DF80000C11002484172002000
:10495000C7E700009800002038B504465048807C26
:10496000A04201D1002038BD002C46D04C4A12682C
:1049700011794B4A526810786B460122FFF7FAF919
:1049800010B14FF0FF30EEE79DF8000020F020005E
:104990000090434A12681179414A526810786B4678
:1049A0000122FFF722FA10B14FF0FF30DBE70320BE
:1049B000FEF740F802200090394890F8220020B11C
:1049C0009DF8000040F080000090354890F82300EA
:1049D00020B19DF8000040F030000090304A12688D
:1049E000117D2F4A526810786B460122FFF7FDF9BE
:1049F000002851D04FF0FF30B5E7294A12681179ED
:104A0000274A526810786B460122FFF7B3F910B1BC
:104A10004FF0FF30A7E72248807A00F0010028B16C
:104A20009DF8000040F02000009004E09DF8000098
:104A300020F0200000901A4A12681179184A526832
:104A400010786B460122FFF7D0F910B14FF0FF301C
:104A500089E70320FDF7EEFF114890F8220010B11E
:104A60008020009001E0002000900D4890F8230085
:104A700020B19DF8000040F030000090084A126814
:104A8000117D074A526810786B460122FFF7ADF995
:104A900010B14FF0FF3066E701488474002062E7F0
:104AA0009800002038B50446214890F82400A04220
:104AB00001D1002038BD24B31D4890F8250010B95D
:104AC0004FF0FF30F6E7002000F086FB0020FFF7F4
:104AD00043FF1749C88C00F0E9F800200090144902
:104AE000496808786B4601222321FFF77EF90121EE
:104AF0000F4880F82410012000F06EFBFFF77EFDC8
:104B000013E0002000F068FB0948007C0090084991
:104B1000496808786B4601222321FFF766F90021D6
:104B2000034880F82410FFF769FD0020C2E7000069
:104B30009800002038B504461F48807A10B94FF01D
:104B4000FF3038BDFA2C09D0B4F5FA7F09D0B4F59E
:104B50007A7F09D0B4F5FA6F0CD108E000200090FC
:104B60000BE00820009008E01020009005E01820DD
:104B7000009002E04FF0FF30E3E700BF0E48007AFC
:104B80009DF80010B0EBE10F01D10020D9E70A4AEF
:104B900012689179084A526810786B460122FFF733
:104BA00024F910B14FF0FF30CBE79DF80000C010A2
:104BB000014908720020C4E79800002038B5044677
:104BC000184890F82300A04201D1002038BD14B14C
:104BD0003020009001E0002000901248807C20B13D
:104BE0009DF8000040F0020000900E4890F822006E
:104BF00020B19DF8000040F080000090094A126842
:104C0000117D084A526810786B460122FFF7EDF8D3
:104C100010B14FF0FF30D9E7024880F82340002060
:104C2000D4E700009800002038B504461E48807A7A
:104C300010B94FF0FF3038BDBC2C02DB01200090D2
:104C400015E0622C02DB0220009010E02A2C02DB2F
:104C5000032000900BE0142C02DB0420009006E0FF
:104C60000A2C02DB0520009001E0062000900E488F
:104C7000C07A9DF80010884201D10020DBE70A4A83
:104C800012689178084A526810786B460122FFF743
:104C9000ACF810B14FF0FF30CDE79DF8001002489E
:104CA000C1720020C7E700009800002038B5044614
:104CB0002448807A10B94FF0FF3038BD214890F871
:104CC000240010B14FF0FF30F7E71E48007D50B1CF
:104CD00034B1282C04DCE0B2FFF780FB0020ECE7C5
:104CE0000020FFF77BFB042C01DA042404E0B4F578
:104CF0007A7F01DD4FF47A744FF47A7090FBF4F010
:104D0000401EC0B200900F4A126851780D4A526896
:104D100010786B460122FFF768F810B14FF0FF30B2
:104D2000CBE79DF80000401C4FF47A7191FBF0F046
:104D300081B20448C1810146C9894810FFF774FF58
:104D40000020BAE79800002038B5044604F070004F
:104D500010B10120009005E014B10020009001E0A6
:104D6000402000902B4A1268917C2A4A52681078A1
:104D70006B460122FFF739F820B1002125488172E6
:104D8000481E38BD9DF8000020F040012148017305
:104D90000020009004F0400020B99DF8000040F091
:104DA0000400009004F0200020B99DF8000040F0BD
:104DB0000200009004F0100020B99DF8000040F0BF
:104DC0000100009004F0080020B99DF8000040F0B8
:104DD000380000900F4A1268D17C0E4A5268107851
:104DE0006B460122FFF701F820B1002109488172CA
:104DF000481EC6E724B1082C02D00020FFF7DEFED3
:104E000004488472002101753220FDF713FE002052
:104E1000B7E7000098000020F8B504460D46164696
:104E200016B94FF0FF30F8BD1A48807A10B94FF02C
:104E3000FF30F8E720128DF80000E0B28DF8010095
:104E40009DF801002844134949684989884202DDD8
:104E50004FF0FF30E7E70F4A1268117E0D4A5268A3
:104E600010786B460222FEF7C0FF10B14FF0FF3002
:104E7000D9E7EAB2074B1B68597D064B5B68187887
:104E80003346FEF7B2FF10B14FF0FF30CBE7002002
:104E9000C9E7000098000020704700002DE9F041AC
:104EA00007463F49B1F9020001F0F8F980463D4854
:104EB0000168404601F05AFB044601F023F805461C
:104EC0000022394B00F00CFE13D33549B1F9020032
:104ED00001F0E4F9804633480168404601F046FBA2
:104EE000044601F00FF805460022304B00F0BEFCEE
:104EF00003D82F480068BDE8F0812E4800682E498D
:104F000008602E4800682B4908602D4801682D482C
:104F1000006801F02BFB294908602149B1F9020022
:104F200001F0BCF9064628480168304601F016FA3F
:104F30000446224801682548006801F00FFA05463A
:104F4000214601F013FB2249086008460068214908
:104F5000086021491F48006801F0CCF902D21D48C1
:104F6000006800E01C481B4908601C49194800689B
:104F700001F0C0FA02D21748006800E0174815494E
:104F80000860084600680A4908600549B1F902004E
:104F900001F084F9034908600E480068ABE700009F
:104FA00068000020640000200088C3400088C3C05F
:104FB00060000020400000203C0000204400002051
:104FC000180000205C000020500000204800002055
:104FD00054000020580000200000FA440000FAC4E9
:104FE0002DE9F04104463D49204601F083FA04D3FF
:104FF0003B49204601F07EF903D83A480068BDE8F5
:10500000F0813948006839490860394800683649F4
:10501000086038480168204601F09DFA344908606C
:10502000084601683448006800F098FF324908607B
:1050300032493148006801F05DF902D22E4800681B
:1050400000E02E482C4908602D492B48006801F0EB
:1050500051FA02D22848006800E029482649086031
:10506000214801682748006801F078F9064622487F
:1050700001682548006801F071F907461C4801687D
:105080002248006801F06AF98046394600F066FF60
:105090000546314600F062FF1D4908600846006879
:1050A000104908601B490F48006801F023F902D23B
:1050B0000C48006800E017480A490860164909488A
:1050C000006801F017FA02D20648006800E01248B2
:1050D000044908600846006891E70000000010419C
:1050E000000010C1E4000020C8000020C40000201F
:1050F000CC000020E8000020D000002000C8AF470E
:1051000000C8AFC7DC000020D8000020D400002079
:10511000E00000200000FA440000FAC470B588B036
:1051200002A905A8FFF748FB0446072C3FD101A8B8
:10513000FEF7A0FF059801F0B1F80646019901F0CD
:105140000DF9054601F06EF80590069801F0A6F8F5
:105150000646019901F002F9054601F063F8069050
:10516000079801F09BF80646019901F0F7F805460B
:1051700001F058F8079005A8FDF7E0FF6846FEF734
:1051800025FFBDF80010029848430290BDF80010BA
:10519000039848430390BDF80010049848430490D6
:1051A00002A8FDF7FBFE03A0FBF75AF800BF08B00A
:1051B00070BD000073657474696E67206269617305
:1051C0002073756363657366756C6C79202E2E2E63
:1051D0002E2E2E0D0A00000038B50446214890F806
:1051E0002400C0B114B10220009001E00020009022
:1051F0001C4A1268D17B1B4A526810786B46012208
:10520000FEF7F3FD10B14FF0FF3038BD9DF80010F0
:105210001448417423E01348807A10B94FF0FF30EE
:10522000F3E724B10F48407C08B10020EDE714B14A
:105230000120009001E0002000900A4A1268D17B12
:10524000084A526810786B460122FEF7CEFD10B175
:105250004FF0FF30D9E79DF800100248417400205C
:10526000D3E70000980000202DE9F04106460F46E4
:1052700000F078FC041E0D4618BF0120284320F0E2
:105280000040C0F17F6000F1E040C00F0ED0301C44
:1052900018BF0120384320F00040C0F17F6000F1CA
:1052A000E040C00F04BF0120FBF70AF92046294661
:1052B000BDE8F08110B586B00446012144F2040037
:1052C000FBF786FE4FF40070ADF8140003208DF854
:1052D000160018208DF8170005A91C48FBF709FBDC
:1052E0004FF48060ADF8140004208DF8170005A974
:1052F0001648FBF7FEFA25208DF8000003208DF8F4
:1053000001008DF8020001208DF803006846FBF7CC
:1053100015FE01940020ADF80800ADF80A00ADF8C4
:105320000C00ADF810000C20ADF80E0001A90848E3
:10533000FCF7DEFE012240F225510548FCF7B2FEE3
:1053400001210348FCF778FE06B010BD00080140BB
:105350000038014021F00042A2F16052B2F5801FF6
:1053600001F0004328BFD2F17F6C0BD95FEA001C2B
:1053700043EAC20242EB507018BF704728BF20F0CA
:1053800001007047B2F5801FBCBF184670474FEA56
:10539000410C1CF5001F02D2084601F0A6B870B5FA
:1053A00000F04AFB00000089FFF7F6BF4FF0004015
:1053B000A0F580007047000010B591EA030F48BFC8
:1053C00083F0004300F1BC84841A71EB030C05D216
:1053D000121943EB0C03001B61EB0C01DFF824E115
:1053E0004FEA1154A4EB135C1EEA430F18BF9EEA68
:1053F000445F73D023EA0E03DCF1200E21EA04514E
:1054000043F4801332D322FA0CFE10EB0E0023FA81
:105410000CFE41EB0E01CCF1200E03FA0EFE10EB58
:105420000E0051F10001B1F5801FCCF1200E32D2F7
:1054300001EB045112FA0EF2BDE8104058BF70475C
:10544000401C38BF5FEA420218BF7047002814BFF3
:1054500020F0010041F100014FEA410313F5001F64
:1054600038BF7047A1F1C04100F034BB012A43EBC3
:105470000302ACF1200CDCF11F0E32BF4FF0000E26
:1054800023FA0CF310EB030041EB0451B4EB115F72
:10549000D0D0A1EB045101F5801149085FEA30003A
:1054A00001EB04510ED350F1000038BF12FA0EFE8A
:1054B00008D1BDE81040C9E7401C38BF5FEA42028E
:1054C000CAD1C3E7BDE810404FEA410313F5001FFE
:1054D00038BF7047A1F1C04100F0FCBA9EEA445FBA
:1054E00008D011EA5E0FBDE8104004BF01F0004192
:1054F00000207047BDE8104070B500F09DFA00BF75
:1055000064FBBE3E0000E0FF02494FF0000001F0E6
:10551000A2B800BF0000F87F491058BFC1F1404158
:105520005B1058BFC3F140438B42EFF300807047DC
:105530002DE9C04130B4DFF8A0C23CEA111418BF15
:105540003CEA131400F0EC8081EA03051CEA111414
:1055500044EAD57418BF1CEA131500F0C780A4EB09
:1055600005044FF0004545EAC12145EAC32341EA5D
:10557000505143EA525304F17F74994204F50034C8
:105580004FEAC0204FEAC22208BF904200F09C8040
:105590004FEA13650FF24016765D4FEA134506FB9E
:1055A00005F7C7F1807706FB07F74FEAD737A7FB68
:1055B00003687642C8F58038A7FB06CE38BFA8F14D
:1055C000010807FB08E64FF0000EA6FB028CE6FB85
:1055D00003CEDCF1000CCEF1004E38BFAEF1010E6F
:1055E000A6FB0C584FF000074FF00005E6FB0E87B6
:1055F000A1FB08C6A0FB07CE16EB0E0645F1000581
:10560000E1FB076515F1E04E7EBFA4F580345FEA4B
:1056100046066D4116F1800745F100054FEA172750
:105620004FEA066647EA0567A6F1DE46B6F1805FF7
:105630004FEA15251FD9384624F0010C05EBC4713B
:10564000BCF1FE6F01EB0C1102D8F0BCBDE800818B
:1056500024425CBF01F5801E9EEAC47F02D4F0BCE8
:10566000BDE80081244238D4F0BCA1F1C041BDE8BE
:10567000004100F02FBA4FEAD22242EA43524FEAE9
:10568000D323A7FB02864FEAD02040EA415007FB14
:1056900003661EEA0E0F4FEAD12105FB026658BFD2
:1056A000A6EB0056B6EB00564FEA520E4EEAC37E0A
:1056B00018EB0E0E56EB530EBDD518EB02085E41EB
:1056C0007F1C55F10005B6E74FF480154FF0000739
:1056D0004FF000064FF00008ADE7F0BC4FF00000BF
:1056E00001F1C04101F00041BDE8008111EA0C1F49
:1056F0000CEA131500D00CE013EA0C1F00F0258013
:105700004FF00000F0BC81EA030101F00041BDE868
:105710000081F0BCBDE8004181EA030100F0DAB984
:10572000F0BCBDE8004170B500F086F9097EFC3E92
:1057300000F007B881EA03014FF0000001F00041DA
:10574000704781EA030100F0C5B9F0BCBDE8004133
:105750004FF0000021497047FFFDFBF9F7F5F4F227
:10576000F0EEEDEBE9E8E6E4E3E1E0DEDDDBDAD8FC
:10577000D7D5D4D3D1D0CFCDCCCBCAC8C7C6C5C45A
:10578000C2C1C0BFBEBDBCBBBAB9B8B7B6B5B4B371
:10579000B2B1B0AFAEADACABAAA9A8A8A7A6A5A45C
:1057A000A3A3A2A1A09F9F9E9D9C9C9B9A99999820
:1057B0009797969595949393929191908F8F8E8EC3
:1057C0008D8C8C8B8B8A8989888887878685858450
:1057D00084838382828181800000FF070000F87F3C
:1057E0004FEA41034FEA5353A3F58063D3F11E03FD
:1057F000C8BFD3F1210C0CDD4FF0004242EAC122B8
:1058000042EA505232FA03FC8CEAE17CACEBE170E4
:105810007047102BC4BF0020704703F5787CBCF1A3
:10582000FF3F04D06FF0004282EA2100704770B55C
:1058300000F002F94992248000207047F2E710F04E
:10584000004248BF4042B0FA80F310FA03F10AD098
:10585000C3F11D0303F580634FEA415002EB03528D
:1058600002EBD12170474FF00000704751EA030C62
:1058700017D41CF5801F58BFBCF5801F00F10680AF
:10588000994218BF704708BF9042704707D711F57B
:10589000801F58BF13F5801F19D499427047894261
:1058A00070471CF5801F08D5BCF5801FF7D58B42CB
:1058B00018BF704708BF824270474FF4001C1CEBB2
:1058C000410F38BF1CEB430F01D28B42704770B5BC
:1058D00000F0B2F8922449004FF000514FF080538D
:1058E000FFF71ABEDFF848C170B51CEA111E1EBFD3
:1058F0001CEA13159EEA0C0F95EA0C0F00F06F805E
:1059000081EA030423EA4C134EEAD47E21EA4C11C7
:1059100041F4801143F48013AE44A1FB024CA0FB80
:105920000365AEF17F7E361955EB0C05A1FB034CE8
:105930004CF10003A0FB021C16EB0C06654153F171
:105940000003094218BF46F0010613F4007F0BD193
:105950004FEA03314FEA0530340341EA155140EA7A
:1059600016506FF003020AE04FEAC3214FEAC52048
:10597000F40241EA555140EA56506FF0020202EB40
:105980002E4201EB025585EACE710AD05FEA440C43
:1059900018BF24F0004450F1000041F1000120EA5A
:1059A000D47040F2FE7C624500D270BDA84214BFA4
:1059B0004FF080444FF04044002E08BF0024BEF159
:1059C000806FA8BFA1F1C041BDE8704080F2828025
:1059D0004FF0000001F1C04101F0004170479EEA24
:1059E0000C0F0CEA131518BF95EA0C0F06D04FF0F8
:1059F000000081EA030E0EF0004170BD00F01CF8BB
:105A00008900013E00F007B800F009B84FEA430CE6
:105A10005FEA5C5C08D081EA030100F05BB84FEA02
:105A2000410C5FEA5C5CF6D14FF000000149704721
:105A30000000FF070000F87F0EF1020E2EF0030EAB
:105A40005EF8046B364205D4012A43EB030515F5D5
:105A5000001F12D8012841EB010C1CF5001F0CD8C7
:105A60000ED14FEAD17C15F5001F0CEB4C0C0CF15C
:105A7000020C08BF4CEBD37C04E04FF0080C01E0B3
:105A80004FEAD37C0CEB4C0526FA05F606F0070628
:105A9000B6F1040C06D20EEB860CBDE870404CF05B
:105AA000010C6047DFE80CF0090B02024FF00041E7
:105AB0004FF00000A1F5002170BD194610460128E5
:105AC00051EB010418BFD4F5001484BF002001F08D
:105AD000004170BD0808A0F500114FEA3101704780
